{"contracts/SocialMedia.sol":{"SocialMedia":{"abi":[{"anonymous":false,"inputs":[{"indexed":false,"internalType":"uint256","name":"postId","type":"uint256"},{"indexed":false,"internalType":"address","name":"voter","type":"address"}],"name":"Downvoted","type":"event"},{"anonymous":false,"inputs":[{"indexed":false,"internalType":"uint256","name":"id","type":"uint256"},{"indexed":false,"internalType":"address","name":"author","type":"address"},{"indexed":false,"internalType":"string","name":"content","type":"string"},{"indexed":false,"internalType":"string","name":"imageUrl","type":"string"},{"indexed":false,"internalType":"uint256","name":"timestamp","type":"uint256"}],"name":"PostCreated","type":"event"},{"anonymous":false,"inputs":[{"indexed":false,"internalType":"uint256","name":"postId","type":"uint256"},{"indexed":false,"internalType":"address","name":"voter","type":"address"}],"name":"Upvoted","type":"event"},{"inputs":[{"internalType":"string","name":"_content","type":"string"},{"internalType":"string","name":"_imageUrl","type":"string"}],"name":"createPost","outputs":[],"stateMutability":"nonpayable","type":"function"},{"inputs":[{"internalType":"uint256","name":"_postId","type":"uint256"}],"name":"downvote","outputs":[],"stateMutability":"nonpayable","type":"function"},{"inputs":[],"name":"getAllPosts","outputs":[{"components":[{"internalType":"uint256","name":"id","type":"uint256"},{"internalType":"address","name":"author","type":"address"},{"internalType":"string","name":"content","type":"string"},{"internalType":"string","name":"imageUrl","type":"string"},{"internalType":"uint256","name":"timestamp","type":"uint256"},{"internalType":"uint256","name":"upvoteCount","type":"uint256"},{"internalType":"uint256","name":"downvoteCount","type":"uint256"}],"internalType":"struct SocialMedia.Post[]","name":"","type":"tuple[]"}],"stateMutability":"view","type":"function"},{"inputs":[{"internalType":"uint256","name":"_id","type":"uint256"}],"name":"getPost","outputs":[{"components":[{"internalType":"uint256","name":"id","type":"uint256"},{"internalType":"address","name":"author","type":"address"},{"internalType":"string","name":"content","type":"string"},{"internalType":"string","name":"imageUrl","type":"string"},{"internalType":"uint256","name":"timestamp","type":"uint256"},{"internalType":"uint256","name":"upvoteCount","type":"uint256"},{"internalType":"uint256","name":"downvoteCount","type":"uint256"}],"internalType":"struct SocialMedia.Post","name":"","type":"tuple"}],"stateMutability":"view","type":"function"},{"inputs":[{"internalType":"uint256","name":"_postId","type":"uint256"}],"name":"getVoteCounts","outputs":[{"internalType":"uint256","name":"","type":"uint256"},{"internalType":"uint256","name":"","type":"uint256"}],"stateMutability":"view","type":"function"},{"inputs":[{"internalType":"uint256","name":"","type":"uint256"},{"internalType":"address","name":"","type":"address"}],"name":"hasDownvoted","outputs":[{"internalType":"bool","name":"","type":"bool"}],"stateMutability":"view","type":"function"},{"inputs":[{"internalType":"uint256","name":"","type":"uint256"},{"internalType":"address","name":"","type":"address"}],"name":"hasUpvoted","outputs":[{"internalType":"bool","name":"","type":"bool"}],"stateMutability":"view","type":"function"},{"inputs":[],"name":"postCount","outputs":[{"internalType":"uint256","name":"","type":"uint256"}],"stateMutability":"view","type":"function"},{"inputs":[{"internalType":"uint256","name":"","type":"uint256"}],"name":"posts","outputs":[{"internalType":"uint256","name":"id","type":"uint256"},{"internalType":"address","name":"author","type":"address"},{"internalType":"string","name":"content","type":"string"},{"internalType":"string","name":"imageUrl","type":"string"},{"internalType":"uint256","name":"timestamp","type":"uint256"},{"internalType":"uint256","name":"upvoteCount","type":"uint256"},{"internalType":"uint256","name":"downvoteCount","type":"uint256"}],"stateMutability":"view","type":"function"},{"inputs":[{"internalType":"uint256","name":"_postId","type":"uint256"}],"name":"upvote","outputs":[],"stateMutability":"nonpayable","type":"function"}],"evm":{"bytecode":{"linkReferences":{},"object":"608060405234801561001057600080fd5b50611ed9806100206000396000f3fe608060405234801561001057600080fd5b506004361061009e5760003560e01c8063392338f511610066578063392338f51461016157806340731c241461017d5780638a241f4c146101ad578063a52c8658146101de578063f31fdad41461020e5761009e565b806301ddf070146100a35780630b1e7f83146100bf57806317906c2e146100f557806324d2e888146101135780633056110014610143575b600080fd5b6100bd60048036038101906100b89190611070565b61022a565b005b6100d960048036038101906100d49190611070565b61048a565b6040516100ec979695949392919061117d565b60405180910390f35b6100fd61060c565b60405161010a91906111fa565b60405180910390f35b61012d60048036038101906101289190611241565b610612565b60405161013a919061129c565b60405180910390f35b61014b610641565b6040516101589190611484565b60405180910390f35b61017b600480360381019061017691906115db565b6108c4565b005b61019760048036038101906101929190611070565b610a86565b6040516101a491906116f6565b60405180910390f35b6101c760048036038101906101c29190611070565b610ca8565b6040516101d5929190611718565b60405180910390f35b6101f860048036038101906101f39190611241565b610d44565b604051610205919061129c565b60405180910390f35b61022860048036038101906102239190611070565b610d73565b005b600154811061026e576040517f08c379a00000000000000000000000000000000000000000000000000000000081526004016102659061178d565b60405180910390fd5b6002600082815260200190815260200160002060003373ffffffffffffffffffffffffffffffffffffffff1673ffffffffffffffffffffffffffffffffffffffff16815260200190815260200160002060009054906101000a900460ff161561030c576040517f08c379a00000000000000000000000000000000000000000000000000000000081526004016103039061181f565b60405180910390fd5b6003600082815260200190815260200160002060003373ffffffffffffffffffffffffffffffffffffffff1673ffffffffffffffffffffffffffffffffffffffff16815260200190815260200160002060009054906101000a900460ff16156103aa576040517f08c379a00000000000000000000000000000000000000000000000000000000081526004016103a1906118b1565b60405180910390fd5b600081815481106103be576103bd6118d1565b5b906000526020600020906007020160050160008154809291906103e09061192f565b919050555060016002600083815260200190815260200160002060003373ffffffffffffffffffffffffffffffffffffffff1673ffffffffffffffffffffffffffffffffffffffff16815260200190815260200160002060006101000a81548160ff0219169083151502179055507f0e092509bde1dd304f477e3ec921b6e4e5092738f70dcd204952ffc1ffdaafdf813360405161047f929190611977565b60405180910390a150565b6000818154811061049a57600080fd5b90600052602060002090600702016000915090508060000154908060010160009054906101000a900473ffffffffffffffffffffffffffffffffffffffff16908060020180546104e9906119cf565b80601f0160208091040260200160405190810160405280929190818152602001828054610515906119cf565b80156105625780601f1061053757610100808354040283529160200191610562565b820191906000526020600020905b81548152906001019060200180831161054557829003601f168201915b505050505090806003018054610577906119cf565b80601f01602080910402602001604051908101604052809291908181526020018280546105a3906119cf565b80156105f05780601f106105c5576101008083540402835291602001916105f0565b820191906000526020600020905b8154815290600101906020018083116105d357829003601f168201915b5050505050908060040154908060050154908060060154905087565b60015481565b60036020528160005260406000206020528060005260406000206000915091509054906101000a900460ff1681565b6060600060015467ffffffffffffffff811115610661576106606114b0565b5b60405190808252806020026020018201604052801561069a57816020015b610687610fd3565b81526020019060019003908161067f5790505b50905060005b6001548110156108bc57600081600180546106bb9190611a00565b6106c59190611a00565b815481106106d6576106d56118d1565b5b90600052602060002090600702016040518060e0016040529081600082015481526020016001820160009054906101000a900473ffffffffffffffffffffffffffffffffffffffff1673ffffffffffffffffffffffffffffffffffffffff1673ffffffffffffffffffffffffffffffffffffffff16815260200160028201805461075f906119cf565b80601f016020809104026020016040519081016040528092919081815260200182805461078b906119cf565b80156107d85780601f106107ad576101008083540402835291602001916107d8565b820191906000526020600020905b8154815290600101906020018083116107bb57829003601f168201915b505050505081526020016003820180546107f1906119cf565b80601f016020809104026020016040519081016040528092919081815260200182805461081d906119cf565b801561086a5780601f1061083f5761010080835404028352916020019161086a565b820191906000526020600020905b81548152906001019060200180831161084d57829003601f168201915b5050505050815260200160048201548152602001600582015481526020016006820154815250508282815181106108a4576108a36118d1565b5b602002602001018190525080806001019150506106a0565b508091505090565b6000825111806108d5575060008151115b610914576040517f08c379a000000000000000000000000000000000000000000000000000000000815260040161090b90611a80565b60405180910390fd5b60006040518060e0016040528060015481526020013373ffffffffffffffffffffffffffffffffffffffff16815260200184815260200183815260200142815260200160008152602001600081525090806001815401808255809150506001900390600052602060002090600702016000909190919091506000820151816000015560208201518160010160006101000a81548173ffffffffffffffffffffffffffffffffffffffff021916908373ffffffffffffffffffffffffffffffffffffffff16021790555060408201518160020190816109f29190611c4c565b506060820151816003019081610a089190611c4c565b506080820151816004015560a0820151816005015560c0820151816006015550507f1947cbf766c888fc9c5f4256cf388fe32d4901ff5bd47d3a4d5318af978cddbe60015433848442604051610a62959493929190611d1e565b60405180910390a160016000815480929190610a7d9061192f565b91905055505050565b610a8e610fd3565b6001548210610ad2576040517f08c379a0000000000000000000000000000000000000000000000000000000008152600401610ac99061178d565b60405180910390fd5b60008281548110610ae657610ae56118d1565b5b90600052602060002090600702016040518060e0016040529081600082015481526020016001820160009054906101000a900473ffffffffffffffffffffffffffffffffffffffff1673ffffffffffffffffffffffffffffffffffffffff1673ffffffffffffffffffffffffffffffffffffffff168152602001600282018054610b6f906119cf565b80601f0160208091040260200160405190810160405280929190818152602001828054610b9b906119cf565b8015610be85780601f10610bbd57610100808354040283529160200191610be8565b820191906000526020600020905b815481529060010190602001808311610bcb57829003601f168201915b50505050508152602001600382018054610c01906119cf565b80601f0160208091040260200160405190810160405280929190818152602001828054610c2d906119cf565b8015610c7a5780601f10610c4f57610100808354040283529160200191610c7a565b820191906000526020600020905b815481529060010190602001808311610c5d57829003601f168201915b5050505050815260200160048201548152602001600582015481526020016006820154815250509050919050565b6000806001548310610cef576040517f08c379a0000000000000000000000000000000000000000000000000000000008152600401610ce69061178d565b60405180910390fd5b60008381548110610d0357610d026118d1565b5b90600052602060002090600702016005015460008481548110610d2957610d286118d1565b5b90600052602060002090600702016006015491509150915091565b60026020528160005260406000206020528060005260406000206000915091509054906101000a900460ff1681565b6001548110610db7576040517f08c379a0000000000000000000000000000000000000000000000000000000008152600401610dae9061178d565b60405180910390fd5b6003600082815260200190815260200160002060003373ffffffffffffffffffffffffffffffffffffffff1673ffffffffffffffffffffffffffffffffffffffff16815260200190815260200160002060009054906101000a900460ff1615610e55576040517f08c379a0000000000000000000000000000000000000000000000000000000008152600401610e4c90611df1565b60405180910390fd5b6002600082815260200190815260200160002060003373ffffffffffffffffffffffffffffffffffffffff1673ffffffffffffffffffffffffffffffffffffffff16815260200190815260200160002060009054906101000a900460ff1615610ef3576040517f08c379a0000000000000000000000000000000000000000000000000000000008152600401610eea90611e83565b60405180910390fd5b60008181548110610f0757610f066118d1565b5b90600052602060002090600702016006016000815480929190610f299061192f565b919050555060016003600083815260200190815260200160002060003373ffffffffffffffffffffffffffffffffffffffff1673ffffffffffffffffffffffffffffffffffffffff16815260200190815260200160002060006101000a81548160ff0219169083151502179055507fd1a80ff7224556d1f75ebb4aabff86e4c1b70cfedfc1c3e67eac663bc85b00278133604051610fc8929190611977565b60405180910390a150565b6040518060e0016040528060008152602001600073ffffffffffffffffffffffffffffffffffffffff16815260200160608152602001606081526020016000815260200160008152602001600081525090565b6000604051905090565b600080fd5b600080fd5b6000819050919050565b61104d8161103a565b811461105857600080fd5b50565b60008135905061106a81611044565b92915050565b60006020828403121561108657611085611030565b5b60006110948482850161105b565b91505092915050565b6110a68161103a565b82525050565b600073ffffffffffffffffffffffffffffffffffffffff82169050919050565b60006110d7826110ac565b9050919050565b6110e7816110cc565b82525050565b600081519050919050565b600082825260208201905092915050565b60005b8381101561112757808201518184015260208101905061110c565b60008484015250505050565b6000601f19601f8301169050919050565b600061114f826110ed565b61115981856110f8565b9350611169818560208601611109565b61117281611133565b840191505092915050565b600060e082019050611192600083018a61109d565b61119f60208301896110de565b81810360408301526111b18188611144565b905081810360608301526111c58187611144565b90506111d4608083018661109d565b6111e160a083018561109d565b6111ee60c083018461109d565b98975050505050505050565b600060208201905061120f600083018461109d565b92915050565b61121e816110cc565b811461122957600080fd5b50565b60008135905061123b81611215565b92915050565b6000806040838503121561125857611257611030565b5b60006112668582860161105b565b92505060206112778582860161122c565b9150509250929050565b60008115159050919050565b61129681611281565b82525050565b60006020820190506112b1600083018461128d565b92915050565b600081519050919050565b600082825260208201905092915050565b6000819050602082019050919050565b6112ec8161103a565b82525050565b6112fb816110cc565b82525050565b600082825260208201905092915050565b600061131d826110ed565b6113278185611301565b9350611337818560208601611109565b61134081611133565b840191505092915050565b600060e08301600083015161136360008601826112e3565b50602083015161137660208601826112f2565b506040830151848203604086015261138e8282611312565b915050606083015184820360608601526113a88282611312565b91505060808301516113bd60808601826112e3565b5060a08301516113d060a08601826112e3565b5060c08301516113e360c08601826112e3565b508091505092915050565b60006113fa838361134b565b905092915050565b6000602082019050919050565b600061141a826112b7565b61142481856112c2565b935083602082028501611436856112d3565b8060005b85811015611472578484038952815161145385826113ee565b945061145e83611402565b925060208a0199505060018101905061143a565b50829750879550505050505092915050565b6000602082019050818103600083015261149e818461140f565b905092915050565b600080fd5b600080fd5b7f4e487b7100000000000000000000000000000000000000000000000000000000600052604160045260246000fd5b6114e882611133565b810181811067ffffffffffffffff82111715611507576115066114b0565b5b80604052505050565b600061151a611026565b905061152682826114df565b919050565b600067ffffffffffffffff821115611546576115456114b0565b5b61154f82611133565b9050602081019050919050565b82818337600083830152505050565b600061157e6115798461152b565b611510565b90508281526020810184848401111561159a576115996114ab565b5b6115a584828561155c565b509392505050565b600082601f8301126115c2576115c16114a6565b5b81356115d284826020860161156b565b91505092915050565b600080604083850312156115f2576115f1611030565b5b600083013567ffffffffffffffff8111156116105761160f611035565b5b61161c858286016115ad565b925050602083013567ffffffffffffffff81111561163d5761163c611035565b5b611649858286016115ad565b9150509250929050565b600060e08301600083015161166b60008601826112e3565b50602083015161167e60208601826112f2565b50604083015184820360408601526116968282611312565b915050606083015184820360608601526116b08282611312565b91505060808301516116c560808601826112e3565b5060a08301516116d860a08601826112e3565b5060c08301516116eb60c08601826112e3565b508091505092915050565b600060208201905081810360008301526117108184611653565b905092915050565b600060408201905061172d600083018561109d565b61173a602083018461109d565b9392505050565b7f506f737420646f6573206e6f742065786973742e000000000000000000000000600082015250565b60006117776014836110f8565b915061178282611741565b602082019050919050565b600060208201905081810360008301526117a68161176a565b9050919050565b7f596f75206861766520616c7265616479207570766f746564207468697320706f60008201527f73742e0000000000000000000000000000000000000000000000000000000000602082015250565b60006118096023836110f8565b9150611814826117ad565b604082019050919050565b60006020820190508181036000830152611838816117fc565b9050919050565b7f596f752063616e6e6f74207570766f746520616674657220646f776e766f746960008201527f6e672e0000000000000000000000000000000000000000000000000000000000602082015250565b600061189b6023836110f8565b91506118a68261183f565b604082019050919050565b600060208201905081810360008301526118ca8161188e565b9050919050565b7f4e487b7100000000000000000000000000000000000000000000000000000000600052603260045260246000fd5b7f4e487b7100000000000000000000000000000000000000000000000000000000600052601160045260246000fd5b600061193a8261103a565b91507fffffffffffffffffffffffffffffffffffffffffffffffffffffffffffffffff820361196c5761196b611900565b5b600182019050919050565b600060408201905061198c600083018561109d565b61199960208301846110de565b9392505050565b7f4e487b7100000000000000000000000000000000000000000000000000000000600052602260045260246000fd5b600060028204905060018216806119e757607f821691505b6020821081036119fa576119f96119a0565b5b50919050565b6000611a0b8261103a565b9150611a168361103a565b9250828203905081811115611a2e57611a2d611900565b5b92915050565b7f436f6e74656e74206f7220496d6167652055524c207265717569726564000000600082015250565b6000611a6a601d836110f8565b9150611a7582611a34565b602082019050919050565b60006020820190508181036000830152611a9981611a5d565b9050919050565b60008190508160005260206000209050919050565b60006020601f8301049050919050565b600082821b905092915050565b600060088302611b027fffffffffffffffffffffffffffffffffffffffffffffffffffffffffffffffff82611ac5565b611b0c8683611ac5565b95508019841693508086168417925050509392505050565b6000819050919050565b6000611b49611b44611b3f8461103a565b611b24565b61103a565b9050919050565b6000819050919050565b611b6383611b2e565b611b77611b6f82611b50565b848454611ad2565b825550505050565b600090565b611b8c611b7f565b611b97818484611b5a565b505050565b5b81811015611bbb57611bb0600082611b84565b600181019050611b9d565b5050565b601f821115611c0057611bd181611aa0565b611bda84611ab5565b81016020851015611be9578190505b611bfd611bf585611ab5565b830182611b9c565b50505b505050565b600082821c905092915050565b6000611c2360001984600802611c05565b1980831691505092915050565b6000611c3c8383611c12565b9150826002028217905092915050565b611c55826110ed565b67ffffffffffffffff811115611c6e57611c6d6114b0565b5b611c7882546119cf565b611c83828285611bbf565b600060209050601f831160018114611cb65760008415611ca4578287015190505b611cae8582611c30565b865550611d16565b601f198416611cc486611aa0565b60005b82811015611cec57848901518255600182019150602085019450602081019050611cc7565b86831015611d095784890151611d05601f891682611c12565b8355505b6001600288020188555050505b505050505050565b600060a082019050611d33600083018861109d565b611d4060208301876110de565b8181036040830152611d528186611144565b90508181036060830152611d668185611144565b9050611d75608083018461109d565b9695505050505050565b7f596f75206861766520616c726561647920646f776e766f74656420746869732060008201527f706f73742e000000000000000000000000000000000000000000000000000000602082015250565b6000611ddb6025836110f8565b9150611de682611d7f565b604082019050919050565b60006020820190508181036000830152611e0a81611dce565b9050919050565b7f596f752063616e6e6f7420646f776e766f7465206166746572207570766f746960008201527f6e672e0000000000000000000000000000000000000000000000000000000000602082015250565b6000611e6d6023836110f8565b9150611e7882611e11565b604082019050919050565b60006020820190508181036000830152611e9c81611e60565b905091905056fea26469706673582212203adb69b16c4df78e10df81a9cac2219aa9a34661941c9017630b86f72e97541464736f6c63430008180033","opcodes":"PUSH1 0x80 PUSH1 0x40 MSTORE CALLVALUE DUP1 ISZERO PUSH2 0x10 JUMPI PUSH1 0x0 DUP1 REVERT JUMPDEST POP PUSH2 0x1ED9 DUP1 PUSH2 0x20 PUSH1 0x0 CODECOPY PUSH1 0x0 RETURN INVALID PUSH1 0x80 PUSH1 0x40 MSTORE CALLVALUE DUP1 ISZERO PUSH2 0x10 JUMPI PUSH1 0x0 DUP1 REVERT JUMPDEST POP PUSH1 0x4 CALLDATASIZE LT PUSH2 0x9E JUMPI PUSH1 0x0 CALLDATALOAD PUSH1 0xE0 SHR DUP1 PUSH4 0x392338F5 GT PUSH2 0x66 JUMPI DUP1 PUSH4 0x392338F5 EQ PUSH2 0x161 JUMPI DUP1 PUSH4 0x40731C24 EQ PUSH2 0x17D JUMPI DUP1 PUSH4 0x8A241F4C EQ PUSH2 0x1AD JUMPI DUP1 PUSH4 0xA52C8658 EQ PUSH2 0x1DE JUMPI DUP1 PUSH4 0xF31FDAD4 EQ PUSH2 0x20E JUMPI PUSH2 0x9E JUMP JUMPDEST DUP1 PUSH4 0x1DDF070 EQ PUSH2 0xA3 JUMPI DUP1 PUSH4 0xB1E7F83 EQ PUSH2 0xBF JUMPI DUP1 PUSH4 0x17906C2E EQ PUSH2 0xF5 JUMPI DUP1 PUSH4 0x24D2E888 EQ PUSH2 0x113 JUMPI DUP1 PUSH4 0x30561100 EQ PUSH2 0x143 JUMPI JUMPDEST PUSH1 0x0 DUP1 REVERT JUMPDEST PUSH2 0xBD PUSH1 0x4 DUP1 CALLDATASIZE SUB DUP2 ADD SWAP1 PUSH2 0xB8 SWAP2 SWAP1 PUSH2 0x1070 JUMP JUMPDEST PUSH2 0x22A JUMP JUMPDEST STOP JUMPDEST PUSH2 0xD9 PUSH1 0x4 DUP1 CALLDATASIZE SUB DUP2 ADD SWAP1 PUSH2 0xD4 SWAP2 SWAP1 PUSH2 0x1070 JUMP JUMPDEST PUSH2 0x48A JUMP JUMPDEST PUSH1 0x40 MLOAD PUSH2 0xEC SWAP8 SWAP7 SWAP6 SWAP5 SWAP4 SWAP3 SWAP2 SWAP1 PUSH2 0x117D JUMP JUMPDEST PUSH1 0x40 MLOAD DUP1 SWAP2 SUB SWAP1 RETURN JUMPDEST PUSH2 0xFD PUSH2 0x60C JUMP JUMPDEST PUSH1 0x40 MLOAD PUSH2 0x10A SWAP2 SWAP1 PUSH2 0x11FA JUMP JUMPDEST PUSH1 0x40 MLOAD DUP1 SWAP2 SUB SWAP1 RETURN JUMPDEST PUSH2 0x12D PUSH1 0x4 DUP1 CALLDATASIZE SUB DUP2 ADD SWAP1 PUSH2 0x128 SWAP2 SWAP1 PUSH2 0x1241 JUMP JUMPDEST PUSH2 0x612 JUMP JUMPDEST PUSH1 0x40 MLOAD PUSH2 0x13A SWAP2 SWAP1 PUSH2 0x129C JUMP JUMPDEST PUSH1 0x40 MLOAD DUP1 SWAP2 SUB SWAP1 RETURN JUMPDEST PUSH2 0x14B PUSH2 0x641 JUMP JUMPDEST PUSH1 0x40 MLOAD PUSH2 0x158 SWAP2 SWAP1 PUSH2 0x1484 JUMP JUMPDEST PUSH1 0x40 MLOAD DUP1 SWAP2 SUB SWAP1 RETURN JUMPDEST PUSH2 0x17B PUSH1 0x4 DUP1 CALLDATASIZE SUB DUP2 ADD SWAP1 PUSH2 0x176 SWAP2 SWAP1 PUSH2 0x15DB JUMP JUMPDEST PUSH2 0x8C4 JUMP JUMPDEST STOP JUMPDEST PUSH2 0x197 PUSH1 0x4 DUP1 CALLDATASIZE SUB DUP2 ADD SWAP1 PUSH2 0x192 SWAP2 SWAP1 PUSH2 0x1070 JUMP JUMPDEST PUSH2 0xA86 JUMP JUMPDEST PUSH1 0x40 MLOAD PUSH2 0x1A4 SWAP2 SWAP1 PUSH2 0x16F6 JUMP JUMPDEST PUSH1 0x40 MLOAD DUP1 SWAP2 SUB SWAP1 RETURN JUMPDEST PUSH2 0x1C7 PUSH1 0x4 DUP1 CALLDATASIZE SUB DUP2 ADD SWAP1 PUSH2 0x1C2 SWAP2 SWAP1 PUSH2 0x1070 JUMP JUMPDEST PUSH2 0xCA8 JUMP JUMPDEST PUSH1 0x40 MLOAD PUSH2 0x1D5 SWAP3 SWAP2 SWAP1 PUSH2 0x1718 JUMP JUMPDEST PUSH1 0x40 MLOAD DUP1 SWAP2 SUB SWAP1 RETURN JUMPDEST PUSH2 0x1F8 PUSH1 0x4 DUP1 CALLDATASIZE SUB DUP2 ADD SWAP1 PUSH2 0x1F3 SWAP2 SWAP1 PUSH2 0x1241 JUMP JUMPDEST PUSH2 0xD44 JUMP JUMPDEST PUSH1 0x40 MLOAD PUSH2 0x205 SWAP2 SWAP1 PUSH2 0x129C JUMP JUMPDEST PUSH1 0x40 MLOAD DUP1 SWAP2 SUB SWAP1 RETURN JUMPDEST PUSH2 0x228 PUSH1 0x4 DUP1 CALLDATASIZE SUB DUP2 ADD SWAP1 PUSH2 0x223 SWAP2 SWAP1 PUSH2 0x1070 JUMP JUMPDEST PUSH2 0xD73 JUMP JUMPDEST STOP JUMPDEST PUSH1 0x1 SLOAD DUP2 LT PUSH2 0x26E JUMPI PUSH1 0x40 MLOAD PUSH32 0x8C379A000000000000000000000000000000000000000000000000000000000 DUP2 MSTORE PUSH1 0x4 ADD PUSH2 0x265 SWAP1 PUSH2 0x178D JUMP JUMPDEST PUSH1 0x40 MLOAD DUP1 SWAP2 SUB SWAP1 REVERT JUMPDEST PUSH1 0x2 PUSH1 0x0 DUP3 DUP2 MSTORE PUSH1 0x20 ADD SWAP1 DUP2 MSTORE PUSH1 0x20 ADD PUSH1 0x0 KECCAK256 PUSH1 0x0 CALLER PUSH20 0xFFFFFFFFFFFFFFFFFFFFFFFFFFFFFFFFFFFFFFFF AND PUSH20 0xFFFFFFFFFFFFFFFFFFFFFFFFFFFFFFFFFFFFFFFF AND DUP2 MSTORE PUSH1 0x20 ADD SWAP1 DUP2 MSTORE PUSH1 0x20 ADD PUSH1 0x0 KECCAK256 PUSH1 0x0 SWAP1 SLOAD SWAP1 PUSH2 0x100 EXP SWAP1 DIV PUSH1 0xFF AND ISZERO PUSH2 0x30C JUMPI PUSH1 0x40 MLOAD PUSH32 0x8C379A000000000000000000000000000000000000000000000000000000000 DUP2 MSTORE PUSH1 0x4 ADD PUSH2 0x303 SWAP1 PUSH2 0x181F JUMP JUMPDEST PUSH1 0x40 MLOAD DUP1 SWAP2 SUB SWAP1 REVERT JUMPDEST PUSH1 0x3 PUSH1 0x0 DUP3 DUP2 MSTORE PUSH1 0x20 ADD SWAP1 DUP2 MSTORE PUSH1 0x20 ADD PUSH1 0x0 KECCAK256 PUSH1 0x0 CALLER PUSH20 0xFFFFFFFFFFFFFFFFFFFFFFFFFFFFFFFFFFFFFFFF AND PUSH20 0xFFFFFFFFFFFFFFFFFFFFFFFFFFFFFFFFFFFFFFFF AND DUP2 MSTORE PUSH1 0x20 ADD SWAP1 DUP2 MSTORE PUSH1 0x20 ADD PUSH1 0x0 KECCAK256 PUSH1 0x0 SWAP1 SLOAD SWAP1 PUSH2 0x100 EXP SWAP1 DIV PUSH1 0xFF AND ISZERO PUSH2 0x3AA JUMPI PUSH1 0x40 MLOAD PUSH32 0x8C379A000000000000000000000000000000000000000000000000000000000 DUP2 MSTORE PUSH1 0x4 ADD PUSH2 0x3A1 SWAP1 PUSH2 0x18B1 JUMP JUMPDEST PUSH1 0x40 MLOAD DUP1 SWAP2 SUB SWAP1 REVERT JUMPDEST PUSH1 0x0 DUP2 DUP2 SLOAD DUP2 LT PUSH2 0x3BE JUMPI PUSH2 0x3BD PUSH2 0x18D1 JUMP JUMPDEST JUMPDEST SWAP1 PUSH1 0x0 MSTORE PUSH1 0x20 PUSH1 0x0 KECCAK256 SWAP1 PUSH1 0x7 MUL ADD PUSH1 0x5 ADD PUSH1 0x0 DUP2 SLOAD DUP1 SWAP3 SWAP2 SWAP1 PUSH2 0x3E0 SWAP1 PUSH2 0x192F JUMP JUMPDEST SWAP2 SWAP1 POP SSTORE POP PUSH1 0x1 PUSH1 0x2 PUSH1 0x0 DUP4 DUP2 MSTORE PUSH1 0x20 ADD SWAP1 DUP2 MSTORE PUSH1 0x20 ADD PUSH1 0x0 KECCAK256 PUSH1 0x0 CALLER PUSH20 0xFFFFFFFFFFFFFFFFFFFFFFFFFFFFFFFFFFFFFFFF AND PUSH20 0xFFFFFFFFFFFFFFFFFFFFFFFFFFFFFFFFFFFFFFFF AND DUP2 MSTORE PUSH1 0x20 ADD SWAP1 DUP2 MSTORE PUSH1 0x20 ADD PUSH1 0x0 KECCAK256 PUSH1 0x0 PUSH2 0x100 EXP DUP2 SLOAD DUP2 PUSH1 0xFF MUL NOT AND SWAP1 DUP4 ISZERO ISZERO MUL OR SWAP1 SSTORE POP PUSH32 0xE092509BDE1DD304F477E3EC921B6E4E5092738F70DCD204952FFC1FFDAAFDF DUP2 CALLER PUSH1 0x40 MLOAD PUSH2 0x47F SWAP3 SWAP2 SWAP1 PUSH2 0x1977 JUMP JUMPDEST PUSH1 0x40 MLOAD DUP1 SWAP2 SUB SWAP1 LOG1 POP JUMP JUMPDEST PUSH1 0x0 DUP2 DUP2 SLOAD DUP2 LT PUSH2 0x49A JUMPI PUSH1 0x0 DUP1 REVERT JUMPDEST SWAP1 PUSH1 0x0 MSTORE PUSH1 0x20 PUSH1 0x0 KECCAK256 SWAP1 PUSH1 0x7 MUL ADD PUSH1 0x0 SWAP2 POP SWAP1 POP DUP1 PUSH1 0x0 ADD SLOAD SWAP1 DUP1 PUSH1 0x1 ADD PUSH1 0x0 SWAP1 SLOAD SWAP1 PUSH2 0x100 EXP SWAP1 DIV PUSH20 0xFFFFFFFFFFFFFFFFFFFFFFFFFFFFFFFFFFFFFFFF AND SWAP1 DUP1 PUSH1 0x2 ADD DUP1 SLOAD PUSH2 0x4E9 SWAP1 PUSH2 0x19CF JUMP JUMPDEST DUP1 PUSH1 0x1F ADD PUSH1 0x20 DUP1 SWAP2 DIV MUL PUSH1 0x20 ADD PUSH1 0x40 MLOAD SWAP1 DUP2 ADD PUSH1 0x40 MSTORE DUP1 SWAP3 SWAP2 SWAP1 DUP2 DUP2 MSTORE PUSH1 0x20 ADD DUP3 DUP1 SLOAD PUSH2 0x515 SWAP1 PUSH2 0x19CF JUMP JUMPDEST DUP1 ISZERO PUSH2 0x562 JUMPI DUP1 PUSH1 0x1F LT PUSH2 0x537 JUMPI PUSH2 0x100 DUP1 DUP4 SLOAD DIV MUL DUP4 MSTORE SWAP2 PUSH1 0x20 ADD SWAP2 PUSH2 0x562 JUMP JUMPDEST DUP3 ADD SWAP2 SWAP1 PUSH1 0x0 MSTORE PUSH1 0x20 PUSH1 0x0 KECCAK256 SWAP1 JUMPDEST DUP2 SLOAD DUP2 MSTORE SWAP1 PUSH1 0x1 ADD SWAP1 PUSH1 0x20 ADD DUP1 DUP4 GT PUSH2 0x545 JUMPI DUP3 SWAP1 SUB PUSH1 0x1F AND DUP3 ADD SWAP2 JUMPDEST POP POP POP POP POP SWAP1 DUP1 PUSH1 0x3 ADD DUP1 SLOAD PUSH2 0x577 SWAP1 PUSH2 0x19CF JUMP JUMPDEST DUP1 PUSH1 0x1F ADD PUSH1 0x20 DUP1 SWAP2 DIV MUL PUSH1 0x20 ADD PUSH1 0x40 MLOAD SWAP1 DUP2 ADD PUSH1 0x40 MSTORE DUP1 SWAP3 SWAP2 SWAP1 DUP2 DUP2 MSTORE PUSH1 0x20 ADD DUP3 DUP1 SLOAD PUSH2 0x5A3 SWAP1 PUSH2 0x19CF JUMP JUMPDEST DUP1 ISZERO PUSH2 0x5F0 JUMPI DUP1 PUSH1 0x1F LT PUSH2 0x5C5 JUMPI PUSH2 0x100 DUP1 DUP4 SLOAD DIV MUL DUP4 MSTORE SWAP2 PUSH1 0x20 ADD SWAP2 PUSH2 0x5F0 JUMP JUMPDEST DUP3 ADD SWAP2 SWAP1 PUSH1 0x0 MSTORE PUSH1 0x20 PUSH1 0x0 KECCAK256 SWAP1 JUMPDEST DUP2 SLOAD DUP2 MSTORE SWAP1 PUSH1 0x1 ADD SWAP1 PUSH1 0x20 ADD DUP1 DUP4 GT PUSH2 0x5D3 JUMPI DUP3 SWAP1 SUB PUSH1 0x1F AND DUP3 ADD SWAP2 JUMPDEST POP POP POP POP POP SWAP1 DUP1 PUSH1 0x4 ADD SLOAD SWAP1 DUP1 PUSH1 0x5 ADD SLOAD SWAP1 DUP1 PUSH1 0x6 ADD SLOAD SWAP1 POP DUP8 JUMP JUMPDEST PUSH1 0x1 SLOAD DUP2 JUMP JUMPDEST PUSH1 0x3 PUSH1 0x20 MSTORE DUP2 PUSH1 0x0 MSTORE PUSH1 0x40 PUSH1 0x0 KECCAK256 PUSH1 0x20 MSTORE DUP1 PUSH1 0x0 MSTORE PUSH1 0x40 PUSH1 0x0 KECCAK256 PUSH1 0x0 SWAP2 POP SWAP2 POP SWAP1 SLOAD SWAP1 PUSH2 0x100 EXP SWAP1 DIV PUSH1 0xFF AND DUP2 JUMP JUMPDEST PUSH1 0x60 PUSH1 0x0 PUSH1 0x1 SLOAD PUSH8 0xFFFFFFFFFFFFFFFF DUP2 GT ISZERO PUSH2 0x661 JUMPI PUSH2 0x660 PUSH2 0x14B0 JUMP JUMPDEST JUMPDEST PUSH1 0x40 MLOAD SWAP1 DUP1 DUP3 MSTORE DUP1 PUSH1 0x20 MUL PUSH1 0x20 ADD DUP3 ADD PUSH1 0x40 MSTORE DUP1 ISZERO PUSH2 0x69A JUMPI DUP2 PUSH1 0x20 ADD JUMPDEST PUSH2 0x687 PUSH2 0xFD3 JUMP JUMPDEST DUP2 MSTORE PUSH1 0x20 ADD SWAP1 PUSH1 0x1 SWAP1 SUB SWAP1 DUP2 PUSH2 0x67F JUMPI SWAP1 POP JUMPDEST POP SWAP1 POP PUSH1 0x0 JUMPDEST PUSH1 0x1 SLOAD DUP2 LT ISZERO PUSH2 0x8BC JUMPI PUSH1 0x0 DUP2 PUSH1 0x1 DUP1 SLOAD PUSH2 0x6BB SWAP2 SWAP1 PUSH2 0x1A00 JUMP JUMPDEST PUSH2 0x6C5 SWAP2 SWAP1 PUSH2 0x1A00 JUMP JUMPDEST DUP2 SLOAD DUP2 LT PUSH2 0x6D6 JUMPI PUSH2 0x6D5 PUSH2 0x18D1 JUMP JUMPDEST JUMPDEST SWAP1 PUSH1 0x0 MSTORE PUSH1 0x20 PUSH1 0x0 KECCAK256 SWAP1 PUSH1 0x7 MUL ADD PUSH1 0x40 MLOAD DUP1 PUSH1 0xE0 ADD PUSH1 0x40 MSTORE SWAP1 DUP2 PUSH1 0x0 DUP3 ADD SLOAD DUP2 MSTORE PUSH1 0x20 ADD PUSH1 0x1 DUP3 ADD PUSH1 0x0 SWAP1 SLOAD SWAP1 PUSH2 0x100 EXP SWAP1 DIV PUSH20 0xFFFFFFFFFFFFFFFFFFFFFFFFFFFFFFFFFFFFFFFF AND PUSH20 0xFFFFFFFFFFFFFFFFFFFFFFFFFFFFFFFFFFFFFFFF AND PUSH20 0xFFFFFFFFFFFFFFFFFFFFFFFFFFFFFFFFFFFFFFFF AND DUP2 MSTORE PUSH1 0x20 ADD PUSH1 0x2 DUP3 ADD DUP1 SLOAD PUSH2 0x75F SWAP1 PUSH2 0x19CF JUMP JUMPDEST DUP1 PUSH1 0x1F ADD PUSH1 0x20 DUP1 SWAP2 DIV MUL PUSH1 0x20 ADD PUSH1 0x40 MLOAD SWAP1 DUP2 ADD PUSH1 0x40 MSTORE DUP1 SWAP3 SWAP2 SWAP1 DUP2 DUP2 MSTORE PUSH1 0x20 ADD DUP3 DUP1 SLOAD PUSH2 0x78B SWAP1 PUSH2 0x19CF JUMP JUMPDEST DUP1 ISZERO PUSH2 0x7D8 JUMPI DUP1 PUSH1 0x1F LT PUSH2 0x7AD JUMPI PUSH2 0x100 DUP1 DUP4 SLOAD DIV MUL DUP4 MSTORE SWAP2 PUSH1 0x20 ADD SWAP2 PUSH2 0x7D8 JUMP JUMPDEST DUP3 ADD SWAP2 SWAP1 PUSH1 0x0 MSTORE PUSH1 0x20 PUSH1 0x0 KECCAK256 SWAP1 JUMPDEST DUP2 SLOAD DUP2 MSTORE SWAP1 PUSH1 0x1 ADD SWAP1 PUSH1 0x20 ADD DUP1 DUP4 GT PUSH2 0x7BB JUMPI DUP3 SWAP1 SUB PUSH1 0x1F AND DUP3 ADD SWAP2 JUMPDEST POP POP POP POP POP DUP2 MSTORE PUSH1 0x20 ADD PUSH1 0x3 DUP3 ADD DUP1 SLOAD PUSH2 0x7F1 SWAP1 PUSH2 0x19CF JUMP JUMPDEST DUP1 PUSH1 0x1F ADD PUSH1 0x20 DUP1 SWAP2 DIV MUL PUSH1 0x20 ADD PUSH1 0x40 MLOAD SWAP1 DUP2 ADD PUSH1 0x40 MSTORE DUP1 SWAP3 SWAP2 SWAP1 DUP2 DUP2 MSTORE PUSH1 0x20 ADD DUP3 DUP1 SLOAD PUSH2 0x81D SWAP1 PUSH2 0x19CF JUMP JUMPDEST DUP1 ISZERO PUSH2 0x86A JUMPI DUP1 PUSH1 0x1F LT PUSH2 0x83F JUMPI PUSH2 0x100 DUP1 DUP4 SLOAD DIV MUL DUP4 MSTORE SWAP2 PUSH1 0x20 ADD SWAP2 PUSH2 0x86A JUMP JUMPDEST DUP3 ADD SWAP2 SWAP1 PUSH1 0x0 MSTORE PUSH1 0x20 PUSH1 0x0 KECCAK256 SWAP1 JUMPDEST DUP2 SLOAD DUP2 MSTORE SWAP1 PUSH1 0x1 ADD SWAP1 PUSH1 0x20 ADD DUP1 DUP4 GT PUSH2 0x84D JUMPI DUP3 SWAP1 SUB PUSH1 0x1F AND DUP3 ADD SWAP2 JUMPDEST POP POP POP POP POP DUP2 MSTORE PUSH1 0x20 ADD PUSH1 0x4 DUP3 ADD SLOAD DUP2 MSTORE PUSH1 0x20 ADD PUSH1 0x5 DUP3 ADD SLOAD DUP2 MSTORE PUSH1 0x20 ADD PUSH1 0x6 DUP3 ADD SLOAD DUP2 MSTORE POP POP DUP3 DUP3 DUP2 MLOAD DUP2 LT PUSH2 0x8A4 JUMPI PUSH2 0x8A3 PUSH2 0x18D1 JUMP JUMPDEST JUMPDEST PUSH1 0x20 MUL PUSH1 0x20 ADD ADD DUP2 SWAP1 MSTORE POP DUP1 DUP1 PUSH1 0x1 ADD SWAP2 POP POP PUSH2 0x6A0 JUMP JUMPDEST POP DUP1 SWAP2 POP POP SWAP1 JUMP JUMPDEST PUSH1 0x0 DUP3 MLOAD GT DUP1 PUSH2 0x8D5 JUMPI POP PUSH1 0x0 DUP2 MLOAD GT JUMPDEST PUSH2 0x914 JUMPI PUSH1 0x40 MLOAD PUSH32 0x8C379A000000000000000000000000000000000000000000000000000000000 DUP2 MSTORE PUSH1 0x4 ADD PUSH2 0x90B SWAP1 PUSH2 0x1A80 JUMP JUMPDEST PUSH1 0x40 MLOAD DUP1 SWAP2 SUB SWAP1 REVERT JUMPDEST PUSH1 0x0 PUSH1 0x40 MLOAD DUP1 PUSH1 0xE0 ADD PUSH1 0x40 MSTORE DUP1 PUSH1 0x1 SLOAD DUP2 MSTORE PUSH1 0x20 ADD CALLER PUSH20 0xFFFFFFFFFFFFFFFFFFFFFFFFFFFFFFFFFFFFFFFF AND DUP2 MSTORE PUSH1 0x20 ADD DUP5 DUP2 MSTORE PUSH1 0x20 ADD DUP4 DUP2 MSTORE PUSH1 0x20 ADD TIMESTAMP DUP2 MSTORE PUSH1 0x20 ADD PUSH1 0x0 DUP2 MSTORE PUSH1 0x20 ADD PUSH1 0x0 DUP2 MSTORE POP SWAP1 DUP1 PUSH1 0x1 DUP2 SLOAD ADD DUP1 DUP3 SSTORE DUP1 SWAP2 POP POP PUSH1 0x1 SWAP1 SUB SWAP1 PUSH1 0x0 MSTORE PUSH1 0x20 PUSH1 0x0 KECCAK256 SWAP1 PUSH1 0x7 MUL ADD PUSH1 0x0 SWAP1 SWAP2 SWAP1 SWAP2 SWAP1 SWAP2 POP PUSH1 0x0 DUP3 ADD MLOAD DUP2 PUSH1 0x0 ADD SSTORE PUSH1 0x20 DUP3 ADD MLOAD DUP2 PUSH1 0x1 ADD PUSH1 0x0 PUSH2 0x100 EXP DUP2 SLOAD DUP2 PUSH20 0xFFFFFFFFFFFFFFFFFFFFFFFFFFFFFFFFFFFFFFFF MUL NOT AND SWAP1 DUP4 PUSH20 0xFFFFFFFFFFFFFFFFFFFFFFFFFFFFFFFFFFFFFFFF AND MUL OR SWAP1 SSTORE POP PUSH1 0x40 DUP3 ADD MLOAD DUP2 PUSH1 0x2 ADD SWAP1 DUP2 PUSH2 0x9F2 SWAP2 SWAP1 PUSH2 0x1C4C JUMP JUMPDEST POP PUSH1 0x60 DUP3 ADD MLOAD DUP2 PUSH1 0x3 ADD SWAP1 DUP2 PUSH2 0xA08 SWAP2 SWAP1 PUSH2 0x1C4C JUMP JUMPDEST POP PUSH1 0x80 DUP3 ADD MLOAD DUP2 PUSH1 0x4 ADD SSTORE PUSH1 0xA0 DUP3 ADD MLOAD DUP2 PUSH1 0x5 ADD SSTORE PUSH1 0xC0 DUP3 ADD MLOAD DUP2 PUSH1 0x6 ADD SSTORE POP POP PUSH32 0x1947CBF766C888FC9C5F4256CF388FE32D4901FF5BD47D3A4D5318AF978CDDBE PUSH1 0x1 SLOAD CALLER DUP5 DUP5 TIMESTAMP PUSH1 0x40 MLOAD PUSH2 0xA62 SWAP6 SWAP5 SWAP4 SWAP3 SWAP2 SWAP1 PUSH2 0x1D1E JUMP JUMPDEST PUSH1 0x40 MLOAD DUP1 SWAP2 SUB SWAP1 LOG1 PUSH1 0x1 PUSH1 0x0 DUP2 SLOAD DUP1 SWAP3 SWAP2 SWAP1 PUSH2 0xA7D SWAP1 PUSH2 0x192F JUMP JUMPDEST SWAP2 SWAP1 POP SSTORE POP POP POP JUMP JUMPDEST PUSH2 0xA8E PUSH2 0xFD3 JUMP JUMPDEST PUSH1 0x1 SLOAD DUP3 LT PUSH2 0xAD2 JUMPI PUSH1 0x40 MLOAD PUSH32 0x8C379A000000000000000000000000000000000000000000000000000000000 DUP2 MSTORE PUSH1 0x4 ADD PUSH2 0xAC9 SWAP1 PUSH2 0x178D JUMP JUMPDEST PUSH1 0x40 MLOAD DUP1 SWAP2 SUB SWAP1 REVERT JUMPDEST PUSH1 0x0 DUP3 DUP2 SLOAD DUP2 LT PUSH2 0xAE6 JUMPI PUSH2 0xAE5 PUSH2 0x18D1 JUMP JUMPDEST JUMPDEST SWAP1 PUSH1 0x0 MSTORE PUSH1 0x20 PUSH1 0x0 KECCAK256 SWAP1 PUSH1 0x7 MUL ADD PUSH1 0x40 MLOAD DUP1 PUSH1 0xE0 ADD PUSH1 0x40 MSTORE SWAP1 DUP2 PUSH1 0x0 DUP3 ADD SLOAD DUP2 MSTORE PUSH1 0x20 ADD PUSH1 0x1 DUP3 ADD PUSH1 0x0 SWAP1 SLOAD SWAP1 PUSH2 0x100 EXP SWAP1 DIV PUSH20 0xFFFFFFFFFFFFFFFFFFFFFFFFFFFFFFFFFFFFFFFF AND PUSH20 0xFFFFFFFFFFFFFFFFFFFFFFFFFFFFFFFFFFFFFFFF AND PUSH20 0xFFFFFFFFFFFFFFFFFFFFFFFFFFFFFFFFFFFFFFFF AND DUP2 MSTORE PUSH1 0x20 ADD PUSH1 0x2 DUP3 ADD DUP1 SLOAD PUSH2 0xB6F SWAP1 PUSH2 0x19CF JUMP JUMPDEST DUP1 PUSH1 0x1F ADD PUSH1 0x20 DUP1 SWAP2 DIV MUL PUSH1 0x20 ADD PUSH1 0x40 MLOAD SWAP1 DUP2 ADD PUSH1 0x40 MSTORE DUP1 SWAP3 SWAP2 SWAP1 DUP2 DUP2 MSTORE PUSH1 0x20 ADD DUP3 DUP1 SLOAD PUSH2 0xB9B SWAP1 PUSH2 0x19CF JUMP JUMPDEST DUP1 ISZERO PUSH2 0xBE8 JUMPI DUP1 PUSH1 0x1F LT PUSH2 0xBBD JUMPI PUSH2 0x100 DUP1 DUP4 SLOAD DIV MUL DUP4 MSTORE SWAP2 PUSH1 0x20 ADD SWAP2 PUSH2 0xBE8 JUMP JUMPDEST DUP3 ADD SWAP2 SWAP1 PUSH1 0x0 MSTORE PUSH1 0x20 PUSH1 0x0 KECCAK256 SWAP1 JUMPDEST DUP2 SLOAD DUP2 MSTORE SWAP1 PUSH1 0x1 ADD SWAP1 PUSH1 0x20 ADD DUP1 DUP4 GT PUSH2 0xBCB JUMPI DUP3 SWAP1 SUB PUSH1 0x1F AND DUP3 ADD SWAP2 JUMPDEST POP POP POP POP POP DUP2 MSTORE PUSH1 0x20 ADD PUSH1 0x3 DUP3 ADD DUP1 SLOAD PUSH2 0xC01 SWAP1 PUSH2 0x19CF JUMP JUMPDEST DUP1 PUSH1 0x1F ADD PUSH1 0x20 DUP1 SWAP2 DIV MUL PUSH1 0x20 ADD PUSH1 0x40 MLOAD SWAP1 DUP2 ADD PUSH1 0x40 MSTORE DUP1 SWAP3 SWAP2 SWAP1 DUP2 DUP2 MSTORE PUSH1 0x20 ADD DUP3 DUP1 SLOAD PUSH2 0xC2D SWAP1 PUSH2 0x19CF JUMP JUMPDEST DUP1 ISZERO PUSH2 0xC7A JUMPI DUP1 PUSH1 0x1F LT PUSH2 0xC4F JUMPI PUSH2 0x100 DUP1 DUP4 SLOAD DIV MUL DUP4 MSTORE SWAP2 PUSH1 0x20 ADD SWAP2 PUSH2 0xC7A JUMP JUMPDEST DUP3 ADD SWAP2 SWAP1 PUSH1 0x0 MSTORE PUSH1 0x20 PUSH1 0x0 KECCAK256 SWAP1 JUMPDEST DUP2 SLOAD DUP2 MSTORE SWAP1 PUSH1 0x1 ADD SWAP1 PUSH1 0x20 ADD DUP1 DUP4 GT PUSH2 0xC5D JUMPI DUP3 SWAP1 SUB PUSH1 0x1F AND DUP3 ADD SWAP2 JUMPDEST POP POP POP POP POP DUP2 MSTORE PUSH1 0x20 ADD PUSH1 0x4 DUP3 ADD SLOAD DUP2 MSTORE PUSH1 0x20 ADD PUSH1 0x5 DUP3 ADD SLOAD DUP2 MSTORE PUSH1 0x20 ADD PUSH1 0x6 DUP3 ADD SLOAD DUP2 MSTORE POP POP SWAP1 POP SWAP2 SWAP1 POP JUMP JUMPDEST PUSH1 0x0 DUP1 PUSH1 0x1 SLOAD DUP4 LT PUSH2 0xCEF JUMPI PUSH1 0x40 MLOAD PUSH32 0x8C379A000000000000000000000000000000000000000000000000000000000 DUP2 MSTORE PUSH1 0x4 ADD PUSH2 0xCE6 SWAP1 PUSH2 0x178D JUMP JUMPDEST PUSH1 0x40 MLOAD DUP1 SWAP2 SUB SWAP1 REVERT JUMPDEST PUSH1 0x0 DUP4 DUP2 SLOAD DUP2 LT PUSH2 0xD03 JUMPI PUSH2 0xD02 PUSH2 0x18D1 JUMP JUMPDEST JUMPDEST SWAP1 PUSH1 0x0 MSTORE PUSH1 0x20 PUSH1 0x0 KECCAK256 SWAP1 PUSH1 0x7 MUL ADD PUSH1 0x5 ADD SLOAD PUSH1 0x0 DUP5 DUP2 SLOAD DUP2 LT PUSH2 0xD29 JUMPI PUSH2 0xD28 PUSH2 0x18D1 JUMP JUMPDEST JUMPDEST SWAP1 PUSH1 0x0 MSTORE PUSH1 0x20 PUSH1 0x0 KECCAK256 SWAP1 PUSH1 0x7 MUL ADD PUSH1 0x6 ADD SLOAD SWAP2 POP SWAP2 POP SWAP2 POP SWAP2 JUMP JUMPDEST PUSH1 0x2 PUSH1 0x20 MSTORE DUP2 PUSH1 0x0 MSTORE PUSH1 0x40 PUSH1 0x0 KECCAK256 PUSH1 0x20 MSTORE DUP1 PUSH1 0x0 MSTORE PUSH1 0x40 PUSH1 0x0 KECCAK256 PUSH1 0x0 SWAP2 POP SWAP2 POP SWAP1 SLOAD SWAP1 PUSH2 0x100 EXP SWAP1 DIV PUSH1 0xFF AND DUP2 JUMP JUMPDEST PUSH1 0x1 SLOAD DUP2 LT PUSH2 0xDB7 JUMPI PUSH1 0x40 MLOAD PUSH32 0x8C379A000000000000000000000000000000000000000000000000000000000 DUP2 MSTORE PUSH1 0x4 ADD PUSH2 0xDAE SWAP1 PUSH2 0x178D JUMP JUMPDEST PUSH1 0x40 MLOAD DUP1 SWAP2 SUB SWAP1 REVERT JUMPDEST PUSH1 0x3 PUSH1 0x0 DUP3 DUP2 MSTORE PUSH1 0x20 ADD SWAP1 DUP2 MSTORE PUSH1 0x20 ADD PUSH1 0x0 KECCAK256 PUSH1 0x0 CALLER PUSH20 0xFFFFFFFFFFFFFFFFFFFFFFFFFFFFFFFFFFFFFFFF AND PUSH20 0xFFFFFFFFFFFFFFFFFFFFFFFFFFFFFFFFFFFFFFFF AND DUP2 MSTORE PUSH1 0x20 ADD SWAP1 DUP2 MSTORE PUSH1 0x20 ADD PUSH1 0x0 KECCAK256 PUSH1 0x0 SWAP1 SLOAD SWAP1 PUSH2 0x100 EXP SWAP1 DIV PUSH1 0xFF AND ISZERO PUSH2 0xE55 JUMPI PUSH1 0x40 MLOAD PUSH32 0x8C379A000000000000000000000000000000000000000000000000000000000 DUP2 MSTORE PUSH1 0x4 ADD PUSH2 0xE4C SWAP1 PUSH2 0x1DF1 JUMP JUMPDEST PUSH1 0x40 MLOAD DUP1 SWAP2 SUB SWAP1 REVERT JUMPDEST PUSH1 0x2 PUSH1 0x0 DUP3 DUP2 MSTORE PUSH1 0x20 ADD SWAP1 DUP2 MSTORE PUSH1 0x20 ADD PUSH1 0x0 KECCAK256 PUSH1 0x0 CALLER PUSH20 0xFFFFFFFFFFFFFFFFFFFFFFFFFFFFFFFFFFFFFFFF AND PUSH20 0xFFFFFFFFFFFFFFFFFFFFFFFFFFFFFFFFFFFFFFFF AND DUP2 MSTORE PUSH1 0x20 ADD SWAP1 DUP2 MSTORE PUSH1 0x20 ADD PUSH1 0x0 KECCAK256 PUSH1 0x0 SWAP1 SLOAD SWAP1 PUSH2 0x100 EXP SWAP1 DIV PUSH1 0xFF AND ISZERO PUSH2 0xEF3 JUMPI PUSH1 0x40 MLOAD PUSH32 0x8C379A000000000000000000000000000000000000000000000000000000000 DUP2 MSTORE PUSH1 0x4 ADD PUSH2 0xEEA SWAP1 PUSH2 0x1E83 JUMP JUMPDEST PUSH1 0x40 MLOAD DUP1 SWAP2 SUB SWAP1 REVERT JUMPDEST PUSH1 0x0 DUP2 DUP2 SLOAD DUP2 LT PUSH2 0xF07 JUMPI PUSH2 0xF06 PUSH2 0x18D1 JUMP JUMPDEST JUMPDEST SWAP1 PUSH1 0x0 MSTORE PUSH1 0x20 PUSH1 0x0 KECCAK256 SWAP1 PUSH1 0x7 MUL ADD PUSH1 0x6 ADD PUSH1 0x0 DUP2 SLOAD DUP1 SWAP3 SWAP2 SWAP1 PUSH2 0xF29 SWAP1 PUSH2 0x192F JUMP JUMPDEST SWAP2 SWAP1 POP SSTORE POP PUSH1 0x1 PUSH1 0x3 PUSH1 0x0 DUP4 DUP2 MSTORE PUSH1 0x20 ADD SWAP1 DUP2 MSTORE PUSH1 0x20 ADD PUSH1 0x0 KECCAK256 PUSH1 0x0 CALLER PUSH20 0xFFFFFFFFFFFFFFFFFFFFFFFFFFFFFFFFFFFFFFFF AND PUSH20 0xFFFFFFFFFFFFFFFFFFFFFFFFFFFFFFFFFFFFFFFF AND DUP2 MSTORE PUSH1 0x20 ADD SWAP1 DUP2 MSTORE PUSH1 0x20 ADD PUSH1 0x0 KECCAK256 PUSH1 0x0 PUSH2 0x100 EXP DUP2 SLOAD DUP2 PUSH1 0xFF MUL NOT AND SWAP1 DUP4 ISZERO ISZERO MUL OR SWAP1 SSTORE POP PUSH32 0xD1A80FF7224556D1F75EBB4AABFF86E4C1B70CFEDFC1C3E67EAC663BC85B0027 DUP2 CALLER PUSH1 0x40 MLOAD PUSH2 0xFC8 SWAP3 SWAP2 SWAP1 PUSH2 0x1977 JUMP JUMPDEST PUSH1 0x40 MLOAD DUP1 SWAP2 SUB SWAP1 LOG1 POP JUMP JUMPDEST PUSH1 0x40 MLOAD DUP1 PUSH1 0xE0 ADD PUSH1 0x40 MSTORE DUP1 PUSH1 0x0 DUP2 MSTORE PUSH1 0x20 ADD PUSH1 0x0 PUSH20 0xFFFFFFFFFFFFFFFFFFFFFFFFFFFFFFFFFFFFFFFF AND DUP2 MSTORE PUSH1 0x20 ADD PUSH1 0x60 DUP2 MSTORE PUSH1 0x20 ADD PUSH1 0x60 DUP2 MSTORE PUSH1 0x20 ADD PUSH1 0x0 DUP2 MSTORE PUSH1 0x20 ADD PUSH1 0x0 DUP2 MSTORE PUSH1 0x20 ADD PUSH1 0x0 DUP2 MSTORE POP SWAP1 JUMP JUMPDEST PUSH1 0x0 PUSH1 0x40 MLOAD SWAP1 POP SWAP1 JUMP JUMPDEST PUSH1 0x0 DUP1 REVERT JUMPDEST PUSH1 0x0 DUP1 REVERT JUMPDEST PUSH1 0x0 DUP2 SWAP1 POP SWAP2 SWAP1 POP JUMP JUMPDEST PUSH2 0x104D DUP2 PUSH2 0x103A JUMP JUMPDEST DUP2 EQ PUSH2 0x1058 JUMPI PUSH1 0x0 DUP1 REVERT JUMPDEST POP JUMP JUMPDEST PUSH1 0x0 DUP2 CALLDATALOAD SWAP1 POP PUSH2 0x106A DUP2 PUSH2 0x1044 JUMP JUMPDEST SWAP3 SWAP2 POP POP JUMP JUMPDEST PUSH1 0x0 PUSH1 0x20 DUP3 DUP5 SUB SLT ISZERO PUSH2 0x1086 JUMPI PUSH2 0x1085 PUSH2 0x1030 JUMP JUMPDEST JUMPDEST PUSH1 0x0 PUSH2 0x1094 DUP5 DUP3 DUP6 ADD PUSH2 0x105B JUMP JUMPDEST SWAP2 POP POP SWAP3 SWAP2 POP POP JUMP JUMPDEST PUSH2 0x10A6 DUP2 PUSH2 0x103A JUMP JUMPDEST DUP3 MSTORE POP POP JUMP JUMPDEST PUSH1 0x0 PUSH20 0xFFFFFFFFFFFFFFFFFFFFFFFFFFFFFFFFFFFFFFFF DUP3 AND SWAP1 POP SWAP2 SWAP1 POP JUMP JUMPDEST PUSH1 0x0 PUSH2 0x10D7 DUP3 PUSH2 0x10AC JUMP JUMPDEST SWAP1 POP SWAP2 SWAP1 POP JUMP JUMPDEST PUSH2 0x10E7 DUP2 PUSH2 0x10CC JUMP JUMPDEST DUP3 MSTORE POP POP JUMP JUMPDEST PUSH1 0x0 DUP2 MLOAD SWAP1 POP SWAP2 SWAP1 POP JUMP JUMPDEST PUSH1 0x0 DUP3 DUP3 MSTORE PUSH1 0x20 DUP3 ADD SWAP1 POP SWAP3 SWAP2 POP POP JUMP JUMPDEST PUSH1 0x0 JUMPDEST DUP4 DUP2 LT ISZERO PUSH2 0x1127 JUMPI DUP1 DUP3 ADD MLOAD DUP2 DUP5 ADD MSTORE PUSH1 0x20 DUP2 ADD SWAP1 POP PUSH2 0x110C JUMP JUMPDEST PUSH1 0x0 DUP5 DUP5 ADD MSTORE POP POP POP POP JUMP JUMPDEST PUSH1 0x0 PUSH1 0x1F NOT PUSH1 0x1F DUP4 ADD AND SWAP1 POP SWAP2 SWAP1 POP JUMP JUMPDEST PUSH1 0x0 PUSH2 0x114F DUP3 PUSH2 0x10ED JUMP JUMPDEST PUSH2 0x1159 DUP2 DUP6 PUSH2 0x10F8 JUMP JUMPDEST SWAP4 POP PUSH2 0x1169 DUP2 DUP6 PUSH1 0x20 DUP7 ADD PUSH2 0x1109 JUMP JUMPDEST PUSH2 0x1172 DUP2 PUSH2 0x1133 JUMP JUMPDEST DUP5 ADD SWAP2 POP POP SWAP3 SWAP2 POP POP JUMP JUMPDEST PUSH1 0x0 PUSH1 0xE0 DUP3 ADD SWAP1 POP PUSH2 0x1192 PUSH1 0x0 DUP4 ADD DUP11 PUSH2 0x109D JUMP JUMPDEST PUSH2 0x119F PUSH1 0x20 DUP4 ADD DUP10 PUSH2 0x10DE JUMP JUMPDEST DUP2 DUP2 SUB PUSH1 0x40 DUP4 ADD MSTORE PUSH2 0x11B1 DUP2 DUP9 PUSH2 0x1144 JUMP JUMPDEST SWAP1 POP DUP2 DUP2 SUB PUSH1 0x60 DUP4 ADD MSTORE PUSH2 0x11C5 DUP2 DUP8 PUSH2 0x1144 JUMP JUMPDEST SWAP1 POP PUSH2 0x11D4 PUSH1 0x80 DUP4 ADD DUP7 PUSH2 0x109D JUMP JUMPDEST PUSH2 0x11E1 PUSH1 0xA0 DUP4 ADD DUP6 PUSH2 0x109D JUMP JUMPDEST PUSH2 0x11EE PUSH1 0xC0 DUP4 ADD DUP5 PUSH2 0x109D JUMP JUMPDEST SWAP9 SWAP8 POP POP POP POP POP POP POP POP JUMP JUMPDEST PUSH1 0x0 PUSH1 0x20 DUP3 ADD SWAP1 POP PUSH2 0x120F PUSH1 0x0 DUP4 ADD DUP5 PUSH2 0x109D JUMP JUMPDEST SWAP3 SWAP2 POP POP JUMP JUMPDEST PUSH2 0x121E DUP2 PUSH2 0x10CC JUMP JUMPDEST DUP2 EQ PUSH2 0x1229 JUMPI PUSH1 0x0 DUP1 REVERT JUMPDEST POP JUMP JUMPDEST PUSH1 0x0 DUP2 CALLDATALOAD SWAP1 POP PUSH2 0x123B DUP2 PUSH2 0x1215 JUMP JUMPDEST SWAP3 SWAP2 POP POP JUMP JUMPDEST PUSH1 0x0 DUP1 PUSH1 0x40 DUP4 DUP6 SUB SLT ISZERO PUSH2 0x1258 JUMPI PUSH2 0x1257 PUSH2 0x1030 JUMP JUMPDEST JUMPDEST PUSH1 0x0 PUSH2 0x1266 DUP6 DUP3 DUP7 ADD PUSH2 0x105B JUMP JUMPDEST SWAP3 POP POP PUSH1 0x20 PUSH2 0x1277 DUP6 DUP3 DUP7 ADD PUSH2 0x122C JUMP JUMPDEST SWAP2 POP POP SWAP3 POP SWAP3 SWAP1 POP JUMP JUMPDEST PUSH1 0x0 DUP2 ISZERO ISZERO SWAP1 POP SWAP2 SWAP1 POP JUMP JUMPDEST PUSH2 0x1296 DUP2 PUSH2 0x1281 JUMP JUMPDEST DUP3 MSTORE POP POP JUMP JUMPDEST PUSH1 0x0 PUSH1 0x20 DUP3 ADD SWAP1 POP PUSH2 0x12B1 PUSH1 0x0 DUP4 ADD DUP5 PUSH2 0x128D JUMP JUMPDEST SWAP3 SWAP2 POP POP JUMP JUMPDEST PUSH1 0x0 DUP2 MLOAD SWAP1 POP SWAP2 SWAP1 POP JUMP JUMPDEST PUSH1 0x0 DUP3 DUP3 MSTORE PUSH1 0x20 DUP3 ADD SWAP1 POP SWAP3 SWAP2 POP POP JUMP JUMPDEST PUSH1 0x0 DUP2 SWAP1 POP PUSH1 0x20 DUP3 ADD SWAP1 POP SWAP2 SWAP1 POP JUMP JUMPDEST PUSH2 0x12EC DUP2 PUSH2 0x103A JUMP JUMPDEST DUP3 MSTORE POP POP JUMP JUMPDEST PUSH2 0x12FB DUP2 PUSH2 0x10CC JUMP JUMPDEST DUP3 MSTORE POP POP JUMP JUMPDEST PUSH1 0x0 DUP3 DUP3 MSTORE PUSH1 0x20 DUP3 ADD SWAP1 POP SWAP3 SWAP2 POP POP JUMP JUMPDEST PUSH1 0x0 PUSH2 0x131D DUP3 PUSH2 0x10ED JUMP JUMPDEST PUSH2 0x1327 DUP2 DUP6 PUSH2 0x1301 JUMP JUMPDEST SWAP4 POP PUSH2 0x1337 DUP2 DUP6 PUSH1 0x20 DUP7 ADD PUSH2 0x1109 JUMP JUMPDEST PUSH2 0x1340 DUP2 PUSH2 0x1133 JUMP JUMPDEST DUP5 ADD SWAP2 POP POP SWAP3 SWAP2 POP POP JUMP JUMPDEST PUSH1 0x0 PUSH1 0xE0 DUP4 ADD PUSH1 0x0 DUP4 ADD MLOAD PUSH2 0x1363 PUSH1 0x0 DUP7 ADD DUP3 PUSH2 0x12E3 JUMP JUMPDEST POP PUSH1 0x20 DUP4 ADD MLOAD PUSH2 0x1376 PUSH1 0x20 DUP7 ADD DUP3 PUSH2 0x12F2 JUMP JUMPDEST POP PUSH1 0x40 DUP4 ADD MLOAD DUP5 DUP3 SUB PUSH1 0x40 DUP7 ADD MSTORE PUSH2 0x138E DUP3 DUP3 PUSH2 0x1312 JUMP JUMPDEST SWAP2 POP POP PUSH1 0x60 DUP4 ADD MLOAD DUP5 DUP3 SUB PUSH1 0x60 DUP7 ADD MSTORE PUSH2 0x13A8 DUP3 DUP3 PUSH2 0x1312 JUMP JUMPDEST SWAP2 POP POP PUSH1 0x80 DUP4 ADD MLOAD PUSH2 0x13BD PUSH1 0x80 DUP7 ADD DUP3 PUSH2 0x12E3 JUMP JUMPDEST POP PUSH1 0xA0 DUP4 ADD MLOAD PUSH2 0x13D0 PUSH1 0xA0 DUP7 ADD DUP3 PUSH2 0x12E3 JUMP JUMPDEST POP PUSH1 0xC0 DUP4 ADD MLOAD PUSH2 0x13E3 PUSH1 0xC0 DUP7 ADD DUP3 PUSH2 0x12E3 JUMP JUMPDEST POP DUP1 SWAP2 POP POP SWAP3 SWAP2 POP POP JUMP JUMPDEST PUSH1 0x0 PUSH2 0x13FA DUP4 DUP4 PUSH2 0x134B JUMP JUMPDEST SWAP1 POP SWAP3 SWAP2 POP POP JUMP JUMPDEST PUSH1 0x0 PUSH1 0x20 DUP3 ADD SWAP1 POP SWAP2 SWAP1 POP JUMP JUMPDEST PUSH1 0x0 PUSH2 0x141A DUP3 PUSH2 0x12B7 JUMP JUMPDEST PUSH2 0x1424 DUP2 DUP6 PUSH2 0x12C2 JUMP JUMPDEST SWAP4 POP DUP4 PUSH1 0x20 DUP3 MUL DUP6 ADD PUSH2 0x1436 DUP6 PUSH2 0x12D3 JUMP JUMPDEST DUP1 PUSH1 0x0 JUMPDEST DUP6 DUP2 LT ISZERO PUSH2 0x1472 JUMPI DUP5 DUP5 SUB DUP10 MSTORE DUP2 MLOAD PUSH2 0x1453 DUP6 DUP3 PUSH2 0x13EE JUMP JUMPDEST SWAP5 POP PUSH2 0x145E DUP4 PUSH2 0x1402 JUMP JUMPDEST SWAP3 POP PUSH1 0x20 DUP11 ADD SWAP10 POP POP PUSH1 0x1 DUP2 ADD SWAP1 POP PUSH2 0x143A JUMP JUMPDEST POP DUP3 SWAP8 POP DUP8 SWAP6 POP POP POP POP POP POP SWAP3 SWAP2 POP POP JUMP JUMPDEST PUSH1 0x0 PUSH1 0x20 DUP3 ADD SWAP1 POP DUP2 DUP2 SUB PUSH1 0x0 DUP4 ADD MSTORE PUSH2 0x149E DUP2 DUP5 PUSH2 0x140F JUMP JUMPDEST SWAP1 POP SWAP3 SWAP2 POP POP JUMP JUMPDEST PUSH1 0x0 DUP1 REVERT JUMPDEST PUSH1 0x0 DUP1 REVERT JUMPDEST PUSH32 0x4E487B7100000000000000000000000000000000000000000000000000000000 PUSH1 0x0 MSTORE PUSH1 0x41 PUSH1 0x4 MSTORE PUSH1 0x24 PUSH1 0x0 REVERT JUMPDEST PUSH2 0x14E8 DUP3 PUSH2 0x1133 JUMP JUMPDEST DUP2 ADD DUP2 DUP2 LT PUSH8 0xFFFFFFFFFFFFFFFF DUP3 GT OR ISZERO PUSH2 0x1507 JUMPI PUSH2 0x1506 PUSH2 0x14B0 JUMP JUMPDEST JUMPDEST DUP1 PUSH1 0x40 MSTORE POP POP POP JUMP JUMPDEST PUSH1 0x0 PUSH2 0x151A PUSH2 0x1026 JUMP JUMPDEST SWAP1 POP PUSH2 0x1526 DUP3 DUP3 PUSH2 0x14DF JUMP JUMPDEST SWAP2 SWAP1 POP JUMP JUMPDEST PUSH1 0x0 PUSH8 0xFFFFFFFFFFFFFFFF DUP3 GT ISZERO PUSH2 0x1546 JUMPI PUSH2 0x1545 PUSH2 0x14B0 JUMP JUMPDEST JUMPDEST PUSH2 0x154F DUP3 PUSH2 0x1133 JUMP JUMPDEST SWAP1 POP PUSH1 0x20 DUP2 ADD SWAP1 POP SWAP2 SWAP1 POP JUMP JUMPDEST DUP3 DUP2 DUP4 CALLDATACOPY PUSH1 0x0 DUP4 DUP4 ADD MSTORE POP POP POP JUMP JUMPDEST PUSH1 0x0 PUSH2 0x157E PUSH2 0x1579 DUP5 PUSH2 0x152B JUMP JUMPDEST PUSH2 0x1510 JUMP JUMPDEST SWAP1 POP DUP3 DUP2 MSTORE PUSH1 0x20 DUP2 ADD DUP5 DUP5 DUP5 ADD GT ISZERO PUSH2 0x159A JUMPI PUSH2 0x1599 PUSH2 0x14AB JUMP JUMPDEST JUMPDEST PUSH2 0x15A5 DUP5 DUP3 DUP6 PUSH2 0x155C JUMP JUMPDEST POP SWAP4 SWAP3 POP POP POP JUMP JUMPDEST PUSH1 0x0 DUP3 PUSH1 0x1F DUP4 ADD SLT PUSH2 0x15C2 JUMPI PUSH2 0x15C1 PUSH2 0x14A6 JUMP JUMPDEST JUMPDEST DUP2 CALLDATALOAD PUSH2 0x15D2 DUP5 DUP3 PUSH1 0x20 DUP7 ADD PUSH2 0x156B JUMP JUMPDEST SWAP2 POP POP SWAP3 SWAP2 POP POP JUMP JUMPDEST PUSH1 0x0 DUP1 PUSH1 0x40 DUP4 DUP6 SUB SLT ISZERO PUSH2 0x15F2 JUMPI PUSH2 0x15F1 PUSH2 0x1030 JUMP JUMPDEST JUMPDEST PUSH1 0x0 DUP4 ADD CALLDATALOAD PUSH8 0xFFFFFFFFFFFFFFFF DUP2 GT ISZERO PUSH2 0x1610 JUMPI PUSH2 0x160F PUSH2 0x1035 JUMP JUMPDEST JUMPDEST PUSH2 0x161C DUP6 DUP3 DUP7 ADD PUSH2 0x15AD JUMP JUMPDEST SWAP3 POP POP PUSH1 0x20 DUP4 ADD CALLDATALOAD PUSH8 0xFFFFFFFFFFFFFFFF DUP2 GT ISZERO PUSH2 0x163D JUMPI PUSH2 0x163C PUSH2 0x1035 JUMP JUMPDEST JUMPDEST PUSH2 0x1649 DUP6 DUP3 DUP7 ADD PUSH2 0x15AD JUMP JUMPDEST SWAP2 POP POP SWAP3 POP SWAP3 SWAP1 POP JUMP JUMPDEST PUSH1 0x0 PUSH1 0xE0 DUP4 ADD PUSH1 0x0 DUP4 ADD MLOAD PUSH2 0x166B PUSH1 0x0 DUP7 ADD DUP3 PUSH2 0x12E3 JUMP JUMPDEST POP PUSH1 0x20 DUP4 ADD MLOAD PUSH2 0x167E PUSH1 0x20 DUP7 ADD DUP3 PUSH2 0x12F2 JUMP JUMPDEST POP PUSH1 0x40 DUP4 ADD MLOAD DUP5 DUP3 SUB PUSH1 0x40 DUP7 ADD MSTORE PUSH2 0x1696 DUP3 DUP3 PUSH2 0x1312 JUMP JUMPDEST SWAP2 POP POP PUSH1 0x60 DUP4 ADD MLOAD DUP5 DUP3 SUB PUSH1 0x60 DUP7 ADD MSTORE PUSH2 0x16B0 DUP3 DUP3 PUSH2 0x1312 JUMP JUMPDEST SWAP2 POP POP PUSH1 0x80 DUP4 ADD MLOAD PUSH2 0x16C5 PUSH1 0x80 DUP7 ADD DUP3 PUSH2 0x12E3 JUMP JUMPDEST POP PUSH1 0xA0 DUP4 ADD MLOAD PUSH2 0x16D8 PUSH1 0xA0 DUP7 ADD DUP3 PUSH2 0x12E3 JUMP JUMPDEST POP PUSH1 0xC0 DUP4 ADD MLOAD PUSH2 0x16EB PUSH1 0xC0 DUP7 ADD DUP3 PUSH2 0x12E3 JUMP JUMPDEST POP DUP1 SWAP2 POP POP SWAP3 SWAP2 POP POP JUMP JUMPDEST PUSH1 0x0 PUSH1 0x20 DUP3 ADD SWAP1 POP DUP2 DUP2 SUB PUSH1 0x0 DUP4 ADD MSTORE PUSH2 0x1710 DUP2 DUP5 PUSH2 0x1653 JUMP JUMPDEST SWAP1 POP SWAP3 SWAP2 POP POP JUMP JUMPDEST PUSH1 0x0 PUSH1 0x40 DUP3 ADD SWAP1 POP PUSH2 0x172D PUSH1 0x0 DUP4 ADD DUP6 PUSH2 0x109D JUMP JUMPDEST PUSH2 0x173A PUSH1 0x20 DUP4 ADD DUP5 PUSH2 0x109D JUMP JUMPDEST SWAP4 SWAP3 POP POP POP JUMP JUMPDEST PUSH32 0x506F737420646F6573206E6F742065786973742E000000000000000000000000 PUSH1 0x0 DUP3 ADD MSTORE POP JUMP JUMPDEST PUSH1 0x0 PUSH2 0x1777 PUSH1 0x14 DUP4 PUSH2 0x10F8 JUMP JUMPDEST SWAP2 POP PUSH2 0x1782 DUP3 PUSH2 0x1741 JUMP JUMPDEST PUSH1 0x20 DUP3 ADD SWAP1 POP SWAP2 SWAP1 POP JUMP JUMPDEST PUSH1 0x0 PUSH1 0x20 DUP3 ADD SWAP1 POP DUP2 DUP2 SUB PUSH1 0x0 DUP4 ADD MSTORE PUSH2 0x17A6 DUP2 PUSH2 0x176A JUMP JUMPDEST SWAP1 POP SWAP2 SWAP1 POP JUMP JUMPDEST PUSH32 0x596F75206861766520616C7265616479207570766F746564207468697320706F PUSH1 0x0 DUP3 ADD MSTORE PUSH32 0x73742E0000000000000000000000000000000000000000000000000000000000 PUSH1 0x20 DUP3 ADD MSTORE POP JUMP JUMPDEST PUSH1 0x0 PUSH2 0x1809 PUSH1 0x23 DUP4 PUSH2 0x10F8 JUMP JUMPDEST SWAP2 POP PUSH2 0x1814 DUP3 PUSH2 0x17AD JUMP JUMPDEST PUSH1 0x40 DUP3 ADD SWAP1 POP SWAP2 SWAP1 POP JUMP JUMPDEST PUSH1 0x0 PUSH1 0x20 DUP3 ADD SWAP1 POP DUP2 DUP2 SUB PUSH1 0x0 DUP4 ADD MSTORE PUSH2 0x1838 DUP2 PUSH2 0x17FC JUMP JUMPDEST SWAP1 POP SWAP2 SWAP1 POP JUMP JUMPDEST PUSH32 0x596F752063616E6E6F74207570766F746520616674657220646F776E766F7469 PUSH1 0x0 DUP3 ADD MSTORE PUSH32 0x6E672E0000000000000000000000000000000000000000000000000000000000 PUSH1 0x20 DUP3 ADD MSTORE POP JUMP JUMPDEST PUSH1 0x0 PUSH2 0x189B PUSH1 0x23 DUP4 PUSH2 0x10F8 JUMP JUMPDEST SWAP2 POP PUSH2 0x18A6 DUP3 PUSH2 0x183F JUMP JUMPDEST PUSH1 0x40 DUP3 ADD SWAP1 POP SWAP2 SWAP1 POP JUMP JUMPDEST PUSH1 0x0 PUSH1 0x20 DUP3 ADD SWAP1 POP DUP2 DUP2 SUB PUSH1 0x0 DUP4 ADD MSTORE PUSH2 0x18CA DUP2 PUSH2 0x188E JUMP JUMPDEST SWAP1 POP SWAP2 SWAP1 POP JUMP JUMPDEST PUSH32 0x4E487B7100000000000000000000000000000000000000000000000000000000 PUSH1 0x0 MSTORE PUSH1 0x32 PUSH1 0x4 MSTORE PUSH1 0x24 PUSH1 0x0 REVERT JUMPDEST PUSH32 0x4E487B7100000000000000000000000000000000000000000000000000000000 PUSH1 0x0 MSTORE PUSH1 0x11 PUSH1 0x4 MSTORE PUSH1 0x24 PUSH1 0x0 REVERT JUMPDEST PUSH1 0x0 PUSH2 0x193A DUP3 PUSH2 0x103A JUMP JUMPDEST SWAP2 POP PUSH32 0xFFFFFFFFFFFFFFFFFFFFFFFFFFFFFFFFFFFFFFFFFFFFFFFFFFFFFFFFFFFFFFFF DUP3 SUB PUSH2 0x196C JUMPI PUSH2 0x196B PUSH2 0x1900 JUMP JUMPDEST JUMPDEST PUSH1 0x1 DUP3 ADD SWAP1 POP SWAP2 SWAP1 POP JUMP JUMPDEST PUSH1 0x0 PUSH1 0x40 DUP3 ADD SWAP1 POP PUSH2 0x198C PUSH1 0x0 DUP4 ADD DUP6 PUSH2 0x109D JUMP JUMPDEST PUSH2 0x1999 PUSH1 0x20 DUP4 ADD DUP5 PUSH2 0x10DE JUMP JUMPDEST SWAP4 SWAP3 POP POP POP JUMP JUMPDEST PUSH32 0x4E487B7100000000000000000000000000000000000000000000000000000000 PUSH1 0x0 MSTORE PUSH1 0x22 PUSH1 0x4 MSTORE PUSH1 0x24 PUSH1 0x0 REVERT JUMPDEST PUSH1 0x0 PUSH1 0x2 DUP3 DIV SWAP1 POP PUSH1 0x1 DUP3 AND DUP1 PUSH2 0x19E7 JUMPI PUSH1 0x7F DUP3 AND SWAP2 POP JUMPDEST PUSH1 0x20 DUP3 LT DUP2 SUB PUSH2 0x19FA JUMPI PUSH2 0x19F9 PUSH2 0x19A0 JUMP JUMPDEST JUMPDEST POP SWAP2 SWAP1 POP JUMP JUMPDEST PUSH1 0x0 PUSH2 0x1A0B DUP3 PUSH2 0x103A JUMP JUMPDEST SWAP2 POP PUSH2 0x1A16 DUP4 PUSH2 0x103A JUMP JUMPDEST SWAP3 POP DUP3 DUP3 SUB SWAP1 POP DUP2 DUP2 GT ISZERO PUSH2 0x1A2E JUMPI PUSH2 0x1A2D PUSH2 0x1900 JUMP JUMPDEST JUMPDEST SWAP3 SWAP2 POP POP JUMP JUMPDEST PUSH32 0x436F6E74656E74206F7220496D6167652055524C207265717569726564000000 PUSH1 0x0 DUP3 ADD MSTORE POP JUMP JUMPDEST PUSH1 0x0 PUSH2 0x1A6A PUSH1 0x1D DUP4 PUSH2 0x10F8 JUMP JUMPDEST SWAP2 POP PUSH2 0x1A75 DUP3 PUSH2 0x1A34 JUMP JUMPDEST PUSH1 0x20 DUP3 ADD SWAP1 POP SWAP2 SWAP1 POP JUMP JUMPDEST PUSH1 0x0 PUSH1 0x20 DUP3 ADD SWAP1 POP DUP2 DUP2 SUB PUSH1 0x0 DUP4 ADD MSTORE PUSH2 0x1A99 DUP2 PUSH2 0x1A5D JUMP JUMPDEST SWAP1 POP SWAP2 SWAP1 POP JUMP JUMPDEST PUSH1 0x0 DUP2 SWAP1 POP DUP2 PUSH1 0x0 MSTORE PUSH1 0x20 PUSH1 0x0 KECCAK256 SWAP1 POP SWAP2 SWAP1 POP JUMP JUMPDEST PUSH1 0x0 PUSH1 0x20 PUSH1 0x1F DUP4 ADD DIV SWAP1 POP SWAP2 SWAP1 POP JUMP JUMPDEST PUSH1 0x0 DUP3 DUP3 SHL SWAP1 POP SWAP3 SWAP2 POP POP JUMP JUMPDEST PUSH1 0x0 PUSH1 0x8 DUP4 MUL PUSH2 0x1B02 PUSH32 0xFFFFFFFFFFFFFFFFFFFFFFFFFFFFFFFFFFFFFFFFFFFFFFFFFFFFFFFFFFFFFFFF DUP3 PUSH2 0x1AC5 JUMP JUMPDEST PUSH2 0x1B0C DUP7 DUP4 PUSH2 0x1AC5 JUMP JUMPDEST SWAP6 POP DUP1 NOT DUP5 AND SWAP4 POP DUP1 DUP7 AND DUP5 OR SWAP3 POP POP POP SWAP4 SWAP3 POP POP POP JUMP JUMPDEST PUSH1 0x0 DUP2 SWAP1 POP SWAP2 SWAP1 POP JUMP JUMPDEST PUSH1 0x0 PUSH2 0x1B49 PUSH2 0x1B44 PUSH2 0x1B3F DUP5 PUSH2 0x103A JUMP JUMPDEST PUSH2 0x1B24 JUMP JUMPDEST PUSH2 0x103A JUMP JUMPDEST SWAP1 POP SWAP2 SWAP1 POP JUMP JUMPDEST PUSH1 0x0 DUP2 SWAP1 POP SWAP2 SWAP1 POP JUMP JUMPDEST PUSH2 0x1B63 DUP4 PUSH2 0x1B2E JUMP JUMPDEST PUSH2 0x1B77 PUSH2 0x1B6F DUP3 PUSH2 0x1B50 JUMP JUMPDEST DUP5 DUP5 SLOAD PUSH2 0x1AD2 JUMP JUMPDEST DUP3 SSTORE POP POP POP POP JUMP JUMPDEST PUSH1 0x0 SWAP1 JUMP JUMPDEST PUSH2 0x1B8C PUSH2 0x1B7F JUMP JUMPDEST PUSH2 0x1B97 DUP2 DUP5 DUP5 PUSH2 0x1B5A JUMP JUMPDEST POP POP POP JUMP JUMPDEST JUMPDEST DUP2 DUP2 LT ISZERO PUSH2 0x1BBB JUMPI PUSH2 0x1BB0 PUSH1 0x0 DUP3 PUSH2 0x1B84 JUMP JUMPDEST PUSH1 0x1 DUP2 ADD SWAP1 POP PUSH2 0x1B9D JUMP JUMPDEST POP POP JUMP JUMPDEST PUSH1 0x1F DUP3 GT ISZERO PUSH2 0x1C00 JUMPI PUSH2 0x1BD1 DUP2 PUSH2 0x1AA0 JUMP JUMPDEST PUSH2 0x1BDA DUP5 PUSH2 0x1AB5 JUMP JUMPDEST DUP2 ADD PUSH1 0x20 DUP6 LT ISZERO PUSH2 0x1BE9 JUMPI DUP2 SWAP1 POP JUMPDEST PUSH2 0x1BFD PUSH2 0x1BF5 DUP6 PUSH2 0x1AB5 JUMP JUMPDEST DUP4 ADD DUP3 PUSH2 0x1B9C JUMP JUMPDEST POP POP JUMPDEST POP POP POP JUMP JUMPDEST PUSH1 0x0 DUP3 DUP3 SHR SWAP1 POP SWAP3 SWAP2 POP POP JUMP JUMPDEST PUSH1 0x0 PUSH2 0x1C23 PUSH1 0x0 NOT DUP5 PUSH1 0x8 MUL PUSH2 0x1C05 JUMP JUMPDEST NOT DUP1 DUP4 AND SWAP2 POP POP SWAP3 SWAP2 POP POP JUMP JUMPDEST PUSH1 0x0 PUSH2 0x1C3C DUP4 DUP4 PUSH2 0x1C12 JUMP JUMPDEST SWAP2 POP DUP3 PUSH1 0x2 MUL DUP3 OR SWAP1 POP SWAP3 SWAP2 POP POP JUMP JUMPDEST PUSH2 0x1C55 DUP3 PUSH2 0x10ED JUMP JUMPDEST PUSH8 0xFFFFFFFFFFFFFFFF DUP2 GT ISZERO PUSH2 0x1C6E JUMPI PUSH2 0x1C6D PUSH2 0x14B0 JUMP JUMPDEST JUMPDEST PUSH2 0x1C78 DUP3 SLOAD PUSH2 0x19CF JUMP JUMPDEST PUSH2 0x1C83 DUP3 DUP3 DUP6 PUSH2 0x1BBF JUMP JUMPDEST PUSH1 0x0 PUSH1 0x20 SWAP1 POP PUSH1 0x1F DUP4 GT PUSH1 0x1 DUP2 EQ PUSH2 0x1CB6 JUMPI PUSH1 0x0 DUP5 ISZERO PUSH2 0x1CA4 JUMPI DUP3 DUP8 ADD MLOAD SWAP1 POP JUMPDEST PUSH2 0x1CAE DUP6 DUP3 PUSH2 0x1C30 JUMP JUMPDEST DUP7 SSTORE POP PUSH2 0x1D16 JUMP JUMPDEST PUSH1 0x1F NOT DUP5 AND PUSH2 0x1CC4 DUP7 PUSH2 0x1AA0 JUMP JUMPDEST PUSH1 0x0 JUMPDEST DUP3 DUP2 LT ISZERO PUSH2 0x1CEC JUMPI DUP5 DUP10 ADD MLOAD DUP3 SSTORE PUSH1 0x1 DUP3 ADD SWAP2 POP PUSH1 0x20 DUP6 ADD SWAP5 POP PUSH1 0x20 DUP2 ADD SWAP1 POP PUSH2 0x1CC7 JUMP JUMPDEST DUP7 DUP4 LT ISZERO PUSH2 0x1D09 JUMPI DUP5 DUP10 ADD MLOAD PUSH2 0x1D05 PUSH1 0x1F DUP10 AND DUP3 PUSH2 0x1C12 JUMP JUMPDEST DUP4 SSTORE POP JUMPDEST PUSH1 0x1 PUSH1 0x2 DUP9 MUL ADD DUP9 SSTORE POP POP POP JUMPDEST POP POP POP POP POP POP JUMP JUMPDEST PUSH1 0x0 PUSH1 0xA0 DUP3 ADD SWAP1 POP PUSH2 0x1D33 PUSH1 0x0 DUP4 ADD DUP9 PUSH2 0x109D JUMP JUMPDEST PUSH2 0x1D40 PUSH1 0x20 DUP4 ADD DUP8 PUSH2 0x10DE JUMP JUMPDEST DUP2 DUP2 SUB PUSH1 0x40 DUP4 ADD MSTORE PUSH2 0x1D52 DUP2 DUP7 PUSH2 0x1144 JUMP JUMPDEST SWAP1 POP DUP2 DUP2 SUB PUSH1 0x60 DUP4 ADD MSTORE PUSH2 0x1D66 DUP2 DUP6 PUSH2 0x1144 JUMP JUMPDEST SWAP1 POP PUSH2 0x1D75 PUSH1 0x80 DUP4 ADD DUP5 PUSH2 0x109D JUMP JUMPDEST SWAP7 SWAP6 POP POP POP POP POP POP JUMP JUMPDEST PUSH32 0x596F75206861766520616C726561647920646F776E766F746564207468697320 PUSH1 0x0 DUP3 ADD MSTORE PUSH32 0x706F73742E000000000000000000000000000000000000000000000000000000 PUSH1 0x20 DUP3 ADD MSTORE POP JUMP JUMPDEST PUSH1 0x0 PUSH2 0x1DDB PUSH1 0x25 DUP4 PUSH2 0x10F8 JUMP JUMPDEST SWAP2 POP PUSH2 0x1DE6 DUP3 PUSH2 0x1D7F JUMP JUMPDEST PUSH1 0x40 DUP3 ADD SWAP1 POP SWAP2 SWAP1 POP JUMP JUMPDEST PUSH1 0x0 PUSH1 0x20 DUP3 ADD SWAP1 POP DUP2 DUP2 SUB PUSH1 0x0 DUP4 ADD MSTORE PUSH2 0x1E0A DUP2 PUSH2 0x1DCE JUMP JUMPDEST SWAP1 POP SWAP2 SWAP1 POP JUMP JUMPDEST PUSH32 0x596F752063616E6E6F7420646F776E766F7465206166746572207570766F7469 PUSH1 0x0 DUP3 ADD MSTORE PUSH32 0x6E672E0000000000000000000000000000000000000000000000000000000000 PUSH1 0x20 DUP3 ADD MSTORE POP JUMP JUMPDEST PUSH1 0x0 PUSH2 0x1E6D PUSH1 0x23 DUP4 PUSH2 0x10F8 JUMP JUMPDEST SWAP2 POP PUSH2 0x1E78 DUP3 PUSH2 0x1E11 JUMP JUMPDEST PUSH1 0x40 DUP3 ADD SWAP1 POP SWAP2 SWAP1 POP JUMP JUMPDEST PUSH1 0x0 PUSH1 0x20 DUP3 ADD SWAP1 POP DUP2 DUP2 SUB PUSH1 0x0 DUP4 ADD MSTORE PUSH2 0x1E9C DUP2 PUSH2 0x1E60 JUMP JUMPDEST SWAP1 POP SWAP2 SWAP1 POP JUMP INVALID LOG2 PUSH5 0x6970667358 0x22 SLT KECCAK256 GASPRICE 0xDB PUSH10 0xB16C4DF78E10DF81A9CA 0xC2 0x21 SWAP11 0xA9 LOG3 CHAINID PUSH2 0x941C SWAP1 OR PUSH4 0xB86F72E SWAP8 SLOAD EQ PUSH5 0x736F6C6343 STOP ADDMOD XOR STOP CALLER "},"methodIdentifiers":{"createPost(string,string)":"392338f5","downvote(uint256)":"f31fdad4","getAllPosts()":"30561100","getPost(uint256)":"40731c24","getVoteCounts(uint256)":"8a241f4c","hasDownvoted(uint256,address)":"24d2e888","hasUpvoted(uint256,address)":"a52c8658","postCount()":"17906c2e","posts(uint256)":"0b1e7f83","upvote(uint256)":"01ddf070"}}}}}